:100AC500EF1FAA0670011E4A60087D68ED60F11DE2
:020AD50080FAA5
:010AD70022FC
:100A3D00C2908F807F017E00120AC5D2A57F017EF4
:070A4D0000120AC5C2A52238
:100A5400D2908F807F017E00120AC5D2A57F017ECD
:070A640000120AC5C2A52221
:100A2400E4F537C2917F38120A3D7F0C120A3D7FEC
:090A340006120A3D7F01020A3D91
:080977008B408A4189428D4347
:10097F00E4F544E544C395435017AB40AA41A9425F
:10098F008544827583001203D1FF120A54054480F7
:01099F00E275
:0109A0002234
:06000300C2A4C2A1D2A4B8
:10000900EFD2A47E08A2E092A0C2A1D2A1C313DEBE
:01001900F4F2
:01001A0022C3
:100AD800E4D2A47F08A2A092E7D2A1C2A1C313DFE7
:020AE800F4FF19
:010AEA0022E9
:0D0B0B00120003AF05120009D2A1C2A422FE
:0A0B3100120003120AD8D2A1C2A4D8
:010B3B002297
:0B0B3C00C2A4C2A1AD087F80020B0B19
:100AEB00EFC4540FFEEF540FFDEE75F00AA42DFF6B
:010AFB0022D8
:030B1800010B00CE
:10046100E4F537C2B730B0030205007F05FE120A7A
:10047100C530B00302050030B0FD050BE50BB40536
:1004810003750B01E50B24FE603914603A14603EDC
:100491002403706BC28C7FCE120A3D7F0F120A3D7E
:1004A100E50875F00A84C454F0FFE50875F00A8484
:1004B100EF25F0F537E4FD7F8E120B0BE537448015
:1004C100FD80307FCB80027FC8120A3D80317F0CD6
:1004D100120A3DD28CE50875F00A84C454F0FFE598
:1004E1000875F00A84EF25F0F537E4FD7F8E120BD5
:1004F1000BAD377F80120B0B7D807F8E120B0BE5CE
:100501000B70030206AB30B1030205F17F057E00DB
:10051100120AC530B1030205F130B1FDE50B24FE2D
:10052100604F1470030205B1240260030205F10556
:1005310008E508B43C03E4F508AD087F0E1209C5CF
:10054100E50875F00A84C454F0FFE50875F00A84E3
:10055100EF25F0F537E4FD7F8E120B0BE537448074
:10056100FD7F80120B0B7D807F8E120B0B7FCB806A
:100571007C0509E509B43C03E4F509AD097F0B12DB
:1005810009C5E50975F00A84C454F0FFE50975F061
:100591000A84EF25F0F537E4FD7F8E120B0BAD37A2
:1005A1007F82120B0B7D807F8E120B0B7FC8803DEB
:1005B100050AE50AB41803E4F50AAD0A7F08120931
:1005C100C5E50A75F00A84C454F0FFE50A75F00A1E
:1005D10084EF25F0F537E4FD7F8E120B0BAD377FED
:1005E10084120B0B7D807F8E120B0B7FC5120A3D8F
:1005F10030B2030206AB7F057E00120AC530B2039A
:100601000206AB30B2FDE50B24FE601F14605B24D3
:100611000260030206AB1508E508B4FF0375083B49
:10062100AD087F0E1209C57FCE807C1509E509B49E
:10063100FF0375093BAD097F0B1209C5E50975F08B
:100641000A84C454F0FFE50975F00A84EF25F0F53A
:1006510037E4FD7F8E120B0BAD377F82120B0B7DC2
:10066100807F8E120B0B7FCB803D150AE50AB4FF0C
:1006710003750A17AD0A7F081209C5E50A75F00A64
:1006810084C454F0FFE50A75F00A84EF25F0F537CC
:10069100E4FD7F8E120B0BAD377F84120B0B7D8037
:0A06A1007F8E120B0B7FC8120A3D7A
:0106AB00222C
:100AB0007F64C2A2AE071FEE70FAD2A27F04AE0717
:040AC0001FEE70FABB
:010AC400220F
:100A6B007F047E0020A2FDA2A2B340FBEF1FAC06C9
:060A7B0070011E4C70F634
:010A81002252
:100A08007F087E00C2A200D2A20000A2A29200EF3C
:0B0A18001FAC0670011E4C70F6A2001F
:010A230022B0
:1009A100E4FDFBFA120A08E433FFC4333333548005
:1009B100FEEDC3134EFD0BBB00010AEB64084A7048
:0309C100E3AF059C
:0109C4002210
:10093D00E4FEEF139200EFC313FF300015C2A200C7
:10094D0000D2A27A007B08EB1B70011AEB4A70F7FC
:10095D008013C2A27A007B08EB1B70011AEB4A7060
:09096D00F7D2A200000EBE08C979
:01097600225E
:100A8200120AB0120A6B7F017E00120AC57FCC12D5
:070A9200093D7F4402093D0C
:100A9900120AB0120A6B7F017E00120AC57FCC12BE
:070AA900093D7FBE02093D7B
:1008DC00120A991209A1A9071209A1EFFEE9FF8ECC
:1008EC00378F38AC37AD38EC120221E4FBFA798043
:1008FC00783D1201168F3C8E3B8D3A8C39E4FFFE0D
:10090C007DC87C42AB3CAA3BA93AA839120116D34C
:10091C00E5389400E53764809480E4FBFAF94004F0
:10092C00783F800278BF12002512025A8E378F381A
:01093C002298
:1009E8002D20002B200074656D7065723A20006E12
:1009F8006F773A2020203A20203A000000000000BB
:090B1B00010800010A00010900B3
:1008750078227C007D007BFF7A0979EE7E007F0976
:100885001203AB782B7C007D007BFF7A0979F77E1C
:10089500007F0C1203AB120A82120A247F80120A0F
:1008A5003D7B007A0079227D081209777FC3120A01
:1008B5003D7B007A00792B7D0B120977120B3C12D8
:1008C5000AFC7FC0120A3D1208DC7D881206AC12B4
:0708D5000A8212046180EBAE
:0F0AFC00758911E4F58DF58BD2AFD2ABD28E2276
:03001B0002080ACE
:10080A00C0E0C0F0C083C082C0D075D000C000C0B4
:10081A0001C002C003C004C005C006C0077F811220
:10082A000B31120AEB8F087F83120B31120AEB8FFE
:10083A00097F85120B31120AEB8F0AAD087F0E125F
:10084A0009C5AD097F0B1209C5AD0A7F081209C592
:10085A00D007D006D005D004D003D002D001D000F2
:0B086A00D0D0D082D083D0F0D0E0329C
:1009C5008D38EF24C0FF120A3DE53875F00A8424FE
:1009D50030FF120A54E53875F00A84E5F02430FF3B
:0309E500020A54AF
:0606AC008E378F388D39F6
:1006B200783B7C007D007BFF7A0A79037E007F0510
:1006C2001203ABAF38AE37120B25AB07AA067C2755
:1006D2007D101203FE8F3B7C277D10AF03AE02120A
:1006E20003FE7E037FE8CFCDCFCECCCE1203FE8FAA
:1006F2003C7C037DE8AF03AE021203FE7E007F6402
:10070200CFCDCFCECCCE1203FE8F3D7C007D64AF29
:1007120003AE021203FE7E007F0ACFCDCFCECCCE37
:100722001203FE8F3EAE02AF037C007D0A1203FE6F
:100732008D3FAF39120A3DC3E537648094807BFF59
:1007420050067A0979E880047A0979EB7D02120968
:1007520077E53B60062430FF120A54753A01743B78
:10076200253AF8E62430FF120A54E53AB402057F2E
:0B0772002E120A54053AE53AB405E3E4
:01077D002259
:10001E000202C6E86480F8E933E83360110460F048
:10002E00ED33EC337009E8FCE9FDEAFEEBFF220448
:10003E0060DED3EB9FEA9EE99DE8C2E78CF0C2F743
:10004E0095F0400CE8CCF8E9CDF9EACEFAEBCFFB0F
:10005E0012029185D0F05804700320D5B3E80470D5
:10006E00075002B2D50202D092D5EC0460F7E4CC70
:10007E00C0E0C398F8603B94186008400DD0E0FBD8
:10008E000202A8E4FBFAC9FC8028E830E406E4C9C1
:10009E00FBE4CAFCE830E305E4C9CACBFCE854072C
:1000AE006010F8C3E913F9EA13FAEB13FBEC13FC37
:1000BE00D8F130F52FC3E49CFCEF9BFFEE9AFEEDDA
:1000CE0099FDD0E0FBEF4E4D4C701222DB03020285
:1000DE00CDEC2CFCEF33FFEE33FEED33FDED30E7D0
:1000EE00EB0202A8EF2BFFEE3AFEED39FDD0E0FB5E
:1000FE0050130BBB00030202D0ED13FDEE13FEEF07
:08010E0013FFEC13FC0202A830
:10011600EC4D6011E8497017ED33EC3304600DE4E3
:10012600FCFFFEFD22E933E8330470F80202C61232
:10013600029158046009E4CC248150062850090233
:1001460002D02840030202CDC0E0EB4A7044B980D9
:1001560006D0E0FB0202BCEF4E701CBD8008EBFF30
:10016600EAFEE9FD80EBE98DF0A4FEE5F00201FF71
:10017600E9CDF9EAFEEBFFEF89F0A4FCE5F0CE89C4
:10018600F0A42EFFE435F0CD89F0A42DFEE435F081
:100196008067EF4E7005BD80D780C3EF8BF0A4ACAF
:1001A600F0EE8BF0A42CFCE435F0F8EF8AF0A42CEA
:1001B600E5F038FCE433CB8DF0A42CFCE5F03BF8FD
:1001C600EE8AF0A42CFCE5F038F8E433CF89F0A4ED
:1001D6002CFCE5F038CF3400CE89F0A42FFFE5F0F3
:1001E6003EFEE433C98DF0A42EFEE5F039CD8AF04B
:1001F600A42FFFE5F03EFEE43DFD33D0E0FB5007C3
:100206000BBB000F0202D0EC2CFCEF33FFEE33FEEB
:06021600ED33FD0202A819
:10021C0075F020800E75F010800575F0087D007E5D
:10022C00007F003392D530D503120453EC334010C9
:10023C00EF33FFEE33FEED33FDEC33FCD5F0ED2266
:0E024C00E5F0247EA2D513CC92E7CDCEFF22A2
:10025A00EDD2E7CD33EC3392D524814006E4FFFE9C
:10026A00FDFC22FCE4CFCECDCC24E0501174FF80FB
:10027A00EDC3CC13CCCD13CDCE13CECF13CF047098
:07028A00F030D5DE02045341
:10029100E9D2E7C933E833F892D5EDD2E7CD33ECB3
:0702A10033FC5002B2D5222C
:1002A800EC30E7100FBF000C0EBE00080DBD0004B7
:1002B8000BEB6014A2D5EB13FCED92E7FD2274FF63
:1002C800FCFDFEFF22E480F8A2D574FF13FC7D80BC
:0302D800E480EFD0
:0300000002077E76
:0C077E00787FE4F6D8FD7581440207C5C1
:1002DB00E709F608DFFA8046E709F208DFFA803E05
:1002EB0088828C83E709F0A3DFFA8032E309F608F2
:1002FB00DFFA8078E309F208DFFA807088828C835A
:10030B00E309F0A3DFFA806489828A83E0A3F6080D
:10031B00DFFA805889828A83E0A3F208DFFA804CE7
:10032B0080D280FA80C680D4806980F280338010BE
:10033B0080A680EA809A80A880DA80E280CA803327
:10034B0089828A83ECFAE493A3C8C582C8CCC5839F
:10035B00CCF0A3C8C582C8CCC583CCDFE9DEE7806F
:10036B000D89828A83E493A3F608DFF9ECFAA9F0EE
:10037B00EDFB2289828A83ECFAE0A3C8C582C8CC44
:10038B00C583CCF0A3C8C582C8CCC583CCDFEADE5D
:10039B00E880DB89828A83E493A3F208DFF980CCBF
:1003AB0088F0EF60010E4E60C388F0ED2402B404B8
:1003BB000050B9F582EB2402B4040050AF2323455F
:0603CB00822390032B7356
:1003D100BB010CE58229F582E5833AF583E02250E1
:1003E10006E92582F8E622BBFE06E92582F8E2222B
:0D03F100E58229F582E5833AF583E4932245
:1003FE00BC000BBE0029EF8DF084FFADF022E4CCE3
:10040E00F875F008EF2FFFEE33FEEC33FCEE9DECAB
:10041E00984005FCEE9DFE0FD5F0E9E4CEFD22EDF1
:10042E00F8F5F0EE8420D21CFEADF075F008EF2F3B
:10043E00FFED33FD4007985006D5F0F222C398FD2C
:05044E000FD5F0EA22C9
:0E045300C3E49FFFE49EFEE49DFDE49CFC22BA
:0C0B2500EE30E707C3E49FFFE49EFE22D1
:10078A00020875E493A3F8E493A34003F68001F208
:10079A0008DFF48029E493A3F85407240CC8C33370
:1007AA00C4540F4420C8834004F456800146F6DF3F
:1007BA00E4800B0102040810204080900B18E47EAC
:1007CA00019360BCA3FF543F30E509541FFEE49334
:1007DA00A360010ECF54C025E060A840B8E493A3FB
:1007EA00FAE493A3F8E493A3C8C582C8CAC583CA26
:1007FA00F0A3C8C582C8CAC583CADFE9DEE780BEDE
:010B240000D0
:00000001FF
